:100000000C942A000C943C000C943C000C943C0092
:100010000C943C000C943C000C943C000C943C0070
:100020000C943C000C943C000C949C000C94A60096
:100030000C94DF080C943C000C943C000C943C00A5
:100040000C943C000C943C000C943C000C94CE00AE
:100050000C943C0011241FBECFE5D4E0DEBFCDBF21
:1000600020E0A0E6B0E001C01D92A938B207E1F798
:100070000E9482090C949F090C9400001092880041
:1000800012BE8CBF89B7826089BF8AE083BF0895A2
:1000900089B78D7F89BF13BE089590918600209106
:1000A000870030E0A9014F5F5F4F477055279413D9
:1000B00008C090918800913A10F080E008958895EA
:1000C000ECCF2C583F4FF901828740938700559A17
:1000D00081E00895CF93809166000E944D008823AF
:1000E00039F0809167000E944D00C0E081110CC082
:1000F000CF910895EC2FF0E0EA59FF4F82810E94E2
:100100004D008823A9F3CF5F80916700C81790F353
:10011000EFCFDA9ADA980895DB980C948900DB9A8D
:100120000E948900D99A0C948900E6E6F0E091E0FB
:10013000918382830C946A001F921FB61F92112430
:10014000109260001F901FBE1F9018952F932FB71D
:100150002F933F934F935F938F939F93EF93FF93CF
:100160004CB150917C0080917D0090E09C012F5F0C
:100170003F4F27703327521731F08C589F4FFC01A7
:10018000408320937D00FF91EF919F918F915F912C
:100190004F913F912F912FBF2F9118958F938FB72C
:1001A0008F93809188008F5F809388008F918FBF9D
:1001B0008F911895DC01ED91FC91119781E090E011
:1001C00014960C9002C0880F991F0A94E2F7908150
:1001D000662319F0892B8083089580958923FBCFAE
:1001E000CF93DF9300D000D000D0CDB7DEB7682F1B
:1001F0008BE390E09A8389839C838B831E821D828C
:10020000CE0101960E94DA000F900F900F900F9090
:100210000F900F90DF91CF910895CF93DF9300D08F
:1002200000D000D0CDB7DEB780916700813089F56E
:1002300080916800813001F1823049F1811129C03B
:100240008BE390E02BE02BBBDC9A9A8389839C8321
:100250008B8383E090E09E838D8360E0CE010196E6
:100260000E94DA000F900F900F900F900F900F9058
:10027000DF91CF910C94890081E00F900F900F9047
:100280000F900F900F90DF91CF910C94F00080E0D1
:10029000F4CF0F900F900F900F900F900F90DF9171
:1002A000CF9108951F93CF93DF9300D000D000D05B
:1002B000CDB7DEB7182F0E9489008BE390E09A83B8
:1002C00089839C838B8381E090E09E838D83612F63
:1002D0006170CE0101960E94DA0089B30F900F90F1
:1002E0000F900F900F900F90DF91CF911F91089575
:1002F0005F926F927F928F929F92AF92BF92CF92B6
:10030000DF92EF92FF920F931F93CF93DF9300D072
:1003100000D000D00F92CDB7DEB7082FDB9A0E9435
:1003200089000E9489007E0187E0E80EF11CC70168
:100330000E948C0024E0522E10E047013BE3C32EC4
:10034000D12CAA24A394B12CCE0101967C010E9449
:100350008900DA82C982DC82CB82BE82AD82602FC4
:100360006170C7010E94DA000695169599B395FB56
:10037000992790F9979599279795192B5A943701B2
:100380005110E5CF05E0BB24BA948BE3E82EF12CA5
:10039000CC24C394D12C0E948900FA82E982FC8289
:1003A000EB82DE82CD826B2D6170C3010E94DA0088
:1003B000B69489B301500111EECFC4010E948F00A1
:1003C000812F82958F7027960FB6F894DEBF0FBEEF
:1003D000CDBFDF91CF911F910F91FF90EF90DF90F4
:1003E000CF90BF90AF909F908F907F906F905F90D5
:1003F0000895BF92CF92DF92EF92FF920F931F93D7
:10040000CF93DF9300D000D000D0CDB7DEB7082F58
:1004100088E0B82E10E09BE3E92EF12CCC24C394A5
:10042000D12C0E948900FA82E982FC82EB82DE8272
:10043000CD82602F6170CE0101960E94DA00069590
:10044000169599B395FB992790F9979599279795C4
:10045000192BBA94B110E5CF812F0F900F900F9008
:100460000F900F900F90DF91CF911F910F91FF9000
:10047000EF90DF90CF90BF9008958F929F92AF92B0
:10048000BF92CF92DF92EF92FF920F931F93CF9381
:10049000DF9300D000D000D0CDB7DEB7162F7C019F
:1004A0005701F7019080C70101967C01193008F5CA
:1004B000812E00E08BE3E82EF12CCC24C394D12CC8
:1004C00081101FC01830B9F5F50100830F900F900F
:1004D0000F900F900F900F90DF91CF911F910F9180
:1004E000FF90EF90DF90CF90BF90AF909F908F9054
:1004F0000895892D0E94F901F701319780831850E2
:10050000CFCF0E948900FA82E982FC82EB82DE82F0
:10051000CD82692D6170CE0101960E94DA00969419
:10052000069589B385FB882780F987958827879565
:10053000082B8A94C5CF06951F5FC4CF1F93CF9316
:10054000DF930F92CDB7DEB780916700823030F134
:10055000109168008150990B23E0880F991F2A950C
:10056000E1F7212F30E082179307C4F0DB9A0E9455
:1005700089000E948900CE0101960E948C00612FA3
:1005800089E690E00E943D02CE0101960E948F0014
:100590000F90DF91CF911F910C946A000F90DF9123
:1005A000CF911F9108951F93CF93DF930F92CDB7F3
:1005B000DEB780916700823020F110916800815091
:1005C000990B23E0880F991F2A95E1F7212F30E03E
:1005D00082179307B4F0DB9A0E948900CE0101963E
:1005E0000E948C00612F89E690E00E943D02CE01BE
:1005F00001960E948F000F90DF91CF911F910C9474
:100600006A000F90DF91CF911F9108950F931F9370
:10061000CF93DF930F92CDB7DEB780916700833021
:1006200078F1009169008250990B23E0880F991F9F
:100630002A95E1F7202F30E0821793070CF1809183
:1006400068000E947801182FDB9A0E948900CE0171
:1006500001960E948C00602F8AE690E00E943D0285
:1006600080E00E945201CE0101960E948F001093FB
:1006700068000F90DF91CF911F910F910C946A0049
:100680000F90DF91CF911F910F9108957F928F92DC
:100690009F92AF92BF92CF92DF92EF92FF920F9311
:1006A0001F93CF93DF9300D000D000D00F92CDB72F
:1006B000DEB7E62E8A010E947801813009F066C01B
:1006C000DB9A0E9489006E0187E0C80ED11CC6012A
:1006D0000E948C00E69423E0922EF12C8C2C7D2C31
:1006E0003BE3C32ED12CAA24A394B12C0E948900F1
:1006F000DA82C982DC82CB82BE82AD826E2D6170CD
:10070000CE0101960E94DA00E694F69489B385FB47
:10071000882780F9879588278795F82A9A949110D9
:10072000E5CFF294F69497E0F922F80180810E94D7
:10073000F901F801808381810E94F901F801818328
:1007400082810E94F901F801828383810E94F9016C
:10075000F801838380E00E945201882D972D0E942A
:100760008F008F2D27960FB6F894DEBF0FBECDBF3A
:10077000DF91CF911F910F91FF90EF90DF90CF907D
:10078000BF90AF909F908F907F90089580E1F82E5A
:10079000E8CFEF92FF921F93CF93DF9300D000D06A
:1007A000CDB7DEB77A010E944603803159F480E16B
:1007B0000F900F900F900F90DF91CF911F91FF90AE
:1007C000EF900895A70166E08AE00E944603182F83
:1007D000803169F3AE014F5F5F4F6EE08AE00E94A7
:1007E0004603803121F349815A816B817C8112302B
:1007F00061F4823051F4DB01CA0182739927AA2780
:10080000BB27892B8A2B8B2B41F0F7014083518327
:1008100062837383812F8062CBCF80E0C9CFFF9248
:100820000F931F93CF93DF9300D000D0CDB7DEB7E7
:10083000F62E8A0190E0A0E0B0E0B82FAA27992711
:100840008827262F207F822B89839A83AB83BC83C2
:10085000AE014F5F5F4F68E08AE00E94C9038111DB
:100860000EC0A8016F2D8BE00F900F900F900F908E
:10087000DF91CF911F910F91FF900C94C903498193
:100880005A816B817C81F801408351836283738339
:1008900080640F900F900F900F90DF91CF911F9178
:1008A0000F91FF900895CF93DF9300D000D0CDB784
:1008B000DEB749835A836B837C83AE014F5F5F4F02
:1008C000682F809165000E940F040F900F900F9089
:1008D0000F90DF91CF910895CF92DF92EF92FF9228
:1008E0000F931F93CF93DF936B017C018901D42F6A
:1008F000C52F42E050E060E072E280E00E945304C5
:10090000811115C0A601B70184E00E945304811132
:100910000EC0A8016D2F7C2F8CE0DF91CF911F912D
:100920000F91FF90EF90DF90CF900C945304DF91E4
:10093000CF911F910F91FF90EF90DF90CF9008958E
:10094000EF92FF920F931F93CF93DF93162FE72E13
:10095000F82E092FEA0141E050E060E072E280E009
:100960000E94530481111AC0412F5E2D6F2D702FEC
:1009700084E00E945304811111C0AE0160E070E078
:1009800011FF03C0BA01552744278CE0DF91CF91B6
:100990001F910F91FF90EF900C945304DF91CF9132
:1009A0001F910F91FF90EF900895CF93DF9300D0A8
:1009B00000D0CDB7DEB7809167008430F1F520918B
:1009C00068003091690040916A0050916B008091FD
:1009D000610090916200A0916300B09164008983EE
:1009E0009A83AB83BC83BC01CD010E946C0440910F
:1009F00061005091620060916300709164004C5FEF
:100A00005F4F6F4F7F4F4093610050936200609340
:100A1000630070936400882341F00F900F900F9053
:100A20000F90DF91CF910C9495000F900F900F9045
:100A30000F90DF91CF910C946A00823009F54091BC
:100A40006800509169008091610090916200A091CE
:100A50006300B091640089839A83AB83BC83BC013B
:100A6000CD010E94A004409161005091620060910C
:100A70006300709164004E5F5F4F6F4F7F4FC3CF35
:100A80000F900F900F900F90DF91CF910895CF931B
:100A9000DF9300D000D0CDB7DEB7809167008830FB
:100AA00051F520916C0030916D0040916E00509195
:100AB0006F008091680090916900A0916A00B091E8
:100AC0006B0089839A83AB83BC83BC01CD010E94F8
:100AD0006C04882341F00F900F900F900F90DF91DE
:100AE000CF910C9495000F900F900F900F90DF9185
:100AF000CF910C946A008630A9F440916C0050911B
:100B00006D008091680090916900A0916A00B09199
:100B10006B0089839A83AB83BC83BC01CD010E94A7
:100B2000A004D7CF0F900F900F900F90DF91CF912F
:100B30000895BF92CF92DF92EF92FF920F931F938F
:100B4000CF93DF9300D000D0CDB7DEB7B62ED72E2F
:100B50007C018A0141E050E060E072E280E00E94A6
:100B6000530481111BC04B2D5D2DB70184E00E9401
:100B70005304811113C0AE014F5F5F4F6EE080914F
:100B800065000E940F04811109C0C980DA80EB80E2
:100B9000FC80B1FC6701F801D182C0820F900F90F8
:100BA0000F900F90DF91CF911F910F91FF90EF90D9
:100BB000DF90CF90BF900895EF92FF920F931F9315
:100BC000CF93DF937B018C01D42FC52F42E050E0FF
:100BD00060E072E280E00E945304811114C0A7011A
:100BE000B80184E00E94530481110DC04D2F5C2F89
:100BF0006EE080916500DF91CF911F910F91FF9082
:100C0000EF900C940F04DF91CF911F910F91FF9003
:100C1000EF900895CF92DF92EF92FF920F931F9380
:100C2000CF93DF9300D000D0CDB7DEB77B018C012E
:100C30006A0124E330E040E050E06CE070E282E0E2
:100C400090E40E946C04882371F080E80F900F906C
:100C50000F900F90DF91CF911F910F91FF90EF9028
:100C6000DF90CF900895A601B701C8010E94A004AB
:100C70008111EBCFAE014F5F5F4F6CE070E282E01D
:100C800090E40E94DC05811115C049815A816B8175
:100C90007C818A019B010571112722273327012BB3
:100CA000022B032B11F0842FD1CF45FDCFCF842F02
:100CB0008068CCCF80E4CACF0F931F93CF93DF938C
:100CC00000D000D00F92CDB7DEB78091670084309E
:100CD00009F059C000916A0010916B0040916800C2
:100CE000509169008091610090916200A091630031
:100CF000B0916400BC01CD010E940A068D838091F1
:100D0000610090916200A0916300B09164009C0129
:100D1000AD012E5F3F4F4F4F5F4F29833A834B8387
:100D20005C83A80169817A818B819C810E940A067B
:100D30004091610050916200609163007091640085
:100D40004C5F5F4F6F4F7F4F409361005093620045
:100D500060936300709364009D81982B992341F008
:100D600092E0909367003D81309368008093690022
:100D70000F900F900F900F900F90DF91CF911F91D8
:100D80000F910C946A000F900F900F900F900F909E
:100D9000DF91CF911F910F910895CF93DF93CDB73E
:100DA000DEB728970FB6F894DEBF0FBECDBF809197
:100DB0006700843009F049C0809161009091620021
:100DC000A0916300B09164008D839E83AF83B88748
:100DD000AE014F5F5F4FBC01CD010E94DC05409129
:100DE00061005091620060916300709164004C5FFB
:100DF0005F4F6F4F7F4F409361005093620060934D
:100E0000630070936400882351F028960FB6F8941D
:100E1000DEBF0FBECDBFDF91CF910C9495008981CD
:100E20009A81AB81BC818093680090936900A09304
:100E30006A00B0936B0028960FB6F894DEBF0FBE21
:100E4000CDBFDF91CF910C946A00823081F5809103
:100E5000610090916200A0916300B09164008D8365
:100E60009E83AF83B887AE014F5F5F4FBC01CD015A
:100E70000E94990540916100509162006091630069
:100E8000709164004E5F5F4F6F4F7F4F40936100E2
:100E90005093620060936300709364008111B5CF3A
:100EA00089819A819093690080936800C4CF2896C5
:100EB0000FB6F894DEBF0FBECDBFDF91CF9108957E
:100EC000CF93DF93CDB7DEB728970FB6F894DEBF88
:100ED0000FBECDBF809167008830A9F58091680072
:100EE00090916900A0916A00B0916B008D839E8300
:100EF000AF83B887AE014F5F5F4FBC01CD010E9449
:100F0000DC05882351F028960FB6F894DEBF0FBE9B
:100F1000CDBFDF91CF910C94950089819A81AB81EF
:100F2000BC8180936C0090936D00A0936E00B09391
:100F30006F0028960FB6F894DEBF0FBECDBFDF91CD
:100F4000CF910C946A008630E1F480916800909112
:100F50006900A0916A00B0916B008D839E83AF837E
:100F6000B887AE014F5F5F4FBC01CD010E9499056C
:100F70008111C9CF89819A8190936D0080936C0013
:100F8000D8CF28960FB6F894DEBF0FBECDBFDF9145
:100F9000CF910895CF93DF9300D000D000D0CDB78C
:100FA000DEB7E0916600E150E03138F5F0E0EF5552
:100FB000F64F0C949909809167008230F1F41092F9
:100FC000680081E08093690039C0809167008130BA
:100FD000A1F488E390E09A8389839C838B8381E0EA
:100FE00090E09E838D8361E080916800811101C053
:100FF00060E0CE0101960E94DA000F900F900F90F2
:101000000F900F900F90DF91CF910895809167001E
:10101000843099F7E8E6F0E08CE690E031E0309338
:10102000600021912FB920916000211111C02FB1D2
:10103000DF0111972C938E179F0789F70F900F9060
:101040000F900F900F900F90DF91CF910C946A004A
:101050008895E9CF0F900F900F900F900F900F9001
:10106000DF91CF910C940D010F900F900F900F9086
:101070000F900F90DF91CF910C949E020F900F90E4
:101080000F900F900F900F90DF91CF910C94D3029F
:101090000F900F900F900F900F900F90DF91CF91C6
:1010A0000C94060380916700863009F0A6CF4AE6CB
:1010B00050E060916900809168000E94C90382CF6E
:1010C00080916700863009F098CF4AE650E0609141
:1010D0006900809168000E940F0474CF80916700BE
:1010E000823051F480916800813009F086CF809180
:1010F000690080936500A2CF853009F07ECF809192
:101100006800823009F079CF8091690090916A007F
:10111000A0916B00B0916C0080936100909362008D
:10112000A0936300B093640089CF0F900F900F904D
:101130000F900F900F90DF91CF910C94CD060F90F0
:101140000F900F900F900F900F90DF91CF910C9414
:10115000D5040F900F900F900F900F900F90DF918C
:10116000CF910C945C060F900F900F900F900F9002
:101170000F90DF91CF910C9460070F900F900F901C
:101180000F900F900F90DF91CF910C944705CF9364
:10119000DF93FC01DB0180859185981771F090E069
:1011A000EF01C80FD91F28812C93019687709927CA
:1011B000808781E0DF91CF91089580E0FBCF1F927F
:1011C0000F920FB60F9211242F933F934F935F937B
:1011D0006F937F938F939F93AF93BF93EF93FF93FF
:1011E000CF93DF930F92CDB7DEB7BE016F5F7F4F16
:1011F0008EE790E00E94C7088823B1F089818CB9FE
:101200000F90DF91CF91FF91EF91BF91AF919F919F
:101210008F917F916F915F914F913F912F910F909F
:101220000FBE0F901F9018955598EACFCF93DF937C
:10123000D82FC92F6D2F7C2F84E790E00E94C7081C
:10124000882319F0DF91CF91089590918800913A09
:10125000C8F78895EFCFCF93DF930F92CDB7DEB766
:10126000CE010196E82ED92E66E670E084E790E084
:101270000E94C7088823C9F08AEF0E943E0087E6D3
:1012800090E00E941609082F811111C00E944800A9
:1012900082E00E944D008AEF0E943E00809188000B
:1012A000813A30F10E944800DFCF8895DDCF8091F0
:1012B0006700F12C8D3050F780916700F81658F0D8
:1012C000102F0E944800112319F381E00E944D0065
:1012D0000E94CA07C9CF8F2D90E088599F4F0E9466
:1012E0001609182F882369F3F394E6CF109288002B
:1012F0006E2D7D2D84E790E00E94C7088111F6CF06
:101300008895CCCF82EB87BB83ED8DB98FED8ABBFF
:101310008AE08BBB85B7806485BF1BB888E98AB932
:1013200086E880BD80E080BD8FE289B978940E9414
:101330002B09EE0FFF1F0590F491E02D0994F8940E
:10134000FFCFDB07E5070608FD072A0834083E083B
:101350004808520860086E0895089F08A908B30855
:02136000BD08C6
:00000001FF
