:100000000C942A000C943C000C943C000C943C0092
:100010000C943C000C943C000C943C000C943C0070
:100020000C943C000C943C000C9448000C9452003E
:100030000C947A000C943C000C943C000C943C0012
:100040000C943C000C943C000C943C000C949C00E0
:100050000C943C0011241FBECFE5D4E0DEBFCDBF21
:1000600020E0A0E6B0E001C01D92A938B207E1F798
:100070000E9480090C94DE090C940000DA9ADA9848
:1000800080FF03C0D99A89B30895D99889B3089598
:100090001F921FB61F921124109260001F901FBE66
:1000A0001F9018952F932FB72F933F934F935F93E4
:1000B0008F939F93EF93FF935CB140917C0080916D
:1000C0007D0090E09C012F5F3F4F27703327421740
:1000D00031F08C589F4FFC01508320937D00FF919D
:1000E000EF919F918F915F914F913F912F912FBFF2
:1000F0002F9118952F932FB72F938F939F93EF9353
:10010000FF938091860090918700891799F090E085
:10011000FC01EC58FF4F2285019687709927809348
:1001200086002CB9FF91EF919F918F912F912FBF56
:100130002F9118955598F6CF8F938FB78F93809105
:1001400088008F5F809388008F918FBF8F91189563
:1001500080917C0090917D00891709F468C090E03F
:10016000FC01EC58FF4F20812093660001968770B8
:10017000992780937C001092880012BE8AEF8CBF72
:1001800089B7826089BF8AE083BF80917C009091AB
:100190007D009817D1F190E0FC01EC58FF4F2081D1
:1001A0002093670001968770992780937C002D30FB
:1001B000C0F5222309F43DC020E013C090E0FC010B
:1001C000EC58FF4F30814A595F4FFA013283019654
:1001D0008770992780937C002F5F80916700281794
:1001E00040F5422F50E080917C0090917D00891372
:1001F000E5CF80918800813AA0F4889580917C00B9
:1002000090917D008913DACFF4CF80918800813AF4
:1002100040F4889580917C0090917D008913BBCF3C
:10022000F4CF80E099B79D7F99BF13BE089588955C
:100230008FCF81E099B79D7F99BF13BE08955091EC
:100240006600409186008091870090E09C012F5FBE
:100250003F4F2770241709F44FC08C589F4FFC0163
:10026000528720938700559A50916700652F4091DF
:1002700086008091870090E09C012F5F3F4F2770A0
:10028000241709F44AC08C589F4FFC0162872093C1
:100290008700559A552379F140E00AC08C589F4F4A
:1002A000FC01728720938700559A4F5F451718F518
:1002B000E42FF0E0EA59FF4F72816091860080914F
:1002C000870090E09C012F5F3F4F27706213E6CFBD
:1002D00080918800813AA0F58895509186008091A0
:1002E000870090E09C012F5F3F4F2770521781F3EA
:1002F00050916700D3CF089580918800813A08F526
:100300008895409186008091870090E09C012F5F46
:100310003F4F27704213A1CFEFCF80918800813AE1
:1003200088F48895409186008091870090E09C0138
:100330002F5F3F4F2770421781F350916700A3CF83
:100340000895089508951092880012BE8AEF8CBF18
:1003500089B7826089BF8AE083BF80918800813A33
:10036000E8F480917C0090917D00891791F090E0F5
:10037000FC01EC58FF4F20810196877099278093EC
:100380007C001092880080917C0090917D00891300
:10039000EECF889580918800813A18F389B78D7FD8
:1003A00089BF13BE0895282FDB9ADA9ADA98DA9A71
:1003B000DA98DB98DA9ADA9834E080E0DA9ADA9818
:1003C00020FF23C0D99A2695869599B395FB992746
:1003D00090F9979599279795892B315079F725E0D2
:1003E0009FEFDA9ADA9890FF0EC0D99A969539B3B2
:1003F0002150B9F7DB9ADA9ADA98D99ADA9ADA9828
:1004000082958F700895D998F1CFD998DCCF282F95
:1004100038E080E00DC0D99A2695869599B395FB72
:10042000992790F9979599279795892B315031F015
:10043000DA9ADA9820FDEFCFD998EECF0895EF92AF
:10044000FF920F931F93CF93DF937C01C62FFC0184
:100450002081693090F1D7EFD60FD695D695D695F5
:1004600081E08D0F8701080F111DF70180810E9427
:100470000702F70181937F01E017F107B1F7C85038
:10048000DD0FDD0FDD0F9C2F9D1BF8012081392F23
:10049000C0E00DC0D99A2695C69589B385FB8827FB
:1004A00080F9879588278795C82B315061F0DA9AB3
:1004B000DA9820FDEFCFD998EECF8C0190E0611152
:1004C0000DC0C6959F5F9830E1F7F801C083DF91BA
:1004D000CF911F910F91FF90EF900895962FD7CF56
:1004E00080916700823070F0609168008150990BB4
:1004F000880F991F880F991F880F991F6817190671
:1005000011F00CF00895DB9ADA9ADA98DA9ADA9810
:10051000DB98DA9ADA9889E690E00E941F02DB9A6B
:10052000DA9ADA98D99ADA9ADA980C941F01CF936A
:10053000DF9380916700833070F0C0916900825032
:10054000990B880F991F880F991F880F991FC8173B
:10055000190621F01CF0DF91CF9108958091680079
:100560000E94D301D82FDB9ADA9ADA98DB98DA9ACC
:10057000DA986C2F8AE690E00E941F0280E00E94C9
:100580003E00DB9ADA9ADA98D99ADA9ADA98D09316
:100590006800DF91CF910C941F010F931F93CF93AD
:1005A0008B01DB9ADA9ADA98DB98DA9ADA988695F0
:1005B00023E0C0E0DA9ADA9880FF33C0D99A8695B2
:1005C000C69599B395FB992790F997959927979593
:1005D000C92B215079F7F80180810E940702F801A8
:1005E000808381810E940702F801818382810E94B9
:1005F0000702F801828383810E940702F801838346
:1006000080E00E943E00DB9ADA9ADA98D99ADA9A68
:10061000DA988C2F829586958770CF911F910F91D4
:100620000895D998CCCFEF92FF921F93CF93DF9389
:1006300000D000D0CDB7DEB7162F7A010E94D301CB
:10064000813059F080E10F900F900F900F90DF9163
:10065000CF911F91FF90EF900895B701812F0E94D5
:10066000CD02803179F38AE00E94D301813051F7C5
:10067000B70186E00E94CD02182F803119F38AE07D
:100680000E94D3018130F1F6BE016F5F7F4F8EE093
:100690000E94CD028031B1F249815A816B817C8107
:1006A000123041F0F7014083518362837383812FBD
:1006B0008062C9CF8230B1F7DB01CA01827399270A
:1006C000AA27BB27892B8A2B8B2B61F780E0BBCF16
:1006D000CF92DF92EF92FF920F931F93CF93DF930E
:1006E000CDB7DEB728970FB6F894DEBF0FBECDBFEB
:1006F000F62EC72ED82EE92E8A0181E090E0A0E0E8
:10070000B2E28D839E83AF83B8874091650050E04D
:1007100070E060E0742F66275527442749835A8389
:100720006B837C83AE014F5F5F4F68E08AE00E947D
:100730001303882381F0806428960FB6F894DEBFF7
:100740000FBECDBFDF91CF911F910F91FF90EF9022
:10075000DF90CF900895AE014B5F5F4F60E08BE07C
:100760000E9413038111E8CFFD82CE82DF82E886EA
:100770008091650090E0B0E0A0E0B82FAA2799270B
:10078000882789839A83AB83BC83AE014F5F5F4F19
:1007900068E08AE00E9413038111CDCFAE014B5F68
:1007A0005F4F64E08BE00E9413038111C5CF30E0FE
:1007B00020E0F1FE03C09801112700270D831E835E
:1007C0002F8338878091650090E0B0E0A0E0B82FDB
:1007D000AA279927882789839A83AB83BC83AE0194
:1007E0004F5F5F4F68E08AE00E9413038111A3CF3F
:1007F000AE014B5F5F4F6CE08BE00E9413039CCF18
:10080000CF92DF92EF92FF920F931F93CF93DF93DC
:10081000CDB7DEB728970FB6F894DEBF0FBECDBFB9
:100820006B017C018A0182E090E0A0E0B2E28D835E
:100830009E83AF83B8874091650050E070E060E030
:10084000742F66275527442749835A836B837C83FB
:10085000AE014F5F5F4F68E08AE00E941303882378
:1008600081F0806428960FB6F894DEBF0FBECDBF2E
:10087000DF91CF911F910F91FF90EF90DF90CF907C
:100880000895AE014B5F5F4F60E08BE00E94130361
:100890008111E8CFCD82DE82EF82F88680916500FB
:1008A00090E0B0E0A0E0B82FAA2799278827898395
:1008B0009A83AB83BC83AE014F5F5F4F68E08AE0F1
:1008C0000E9413038111CDCFAE014B5F5F4F64E0F7
:1008D0008BE00E9413038111C5CF8091650090E0E9
:1008E000B0E0A0E0B82FAA279927882789839A83A8
:1008F000AB83BC83AE014F5F5F4F68E08AE00E942C
:100900001303882351F049815A816B817C81F8015E
:100910004083518362837383A4CFA8016EE08BE090
:1009200028960FB6F894DEBF0FBECDBFDF91CF91F2
:100930001F910F91FF90EF90DF90CF900C941303D5
:100940008F929F92AF92BF92CF92DF92EF92FF92DF
:100950000F931F93CF93DF93CDB7DEB728970FB6D2
:10096000F894DEBF0FBECDBF4B01A82EF92EB22EDC
:10097000C32ED42EE52E82E090E0A0E0B2E28D837B
:100980009E83AF83B8870091650010E030E020E0DF
:10099000302F22271127002709831A832B833C83BA
:1009A000AE014F5F5F4F68E08AE00E941303882327
:1009B000A1F0806428960FB6F894DEBF0FBECDBFBD
:1009C000DF91CF911F910F91FF90EF90DF90CF902B
:1009D000BF90AF909F908F900895AE014B5F5F4F97
:1009E00060E08BE00E9413038111E4CF8D829E8230
:1009F000AF82F8868091650090E0B0E0A0E0B82F6B
:100A0000AA279927882789839A83AB83BC83AE0161
:100A10004F5F5F4F68E08AE00E9413038111C9CFE6
:100A2000AE014B5F5F4F64E08BE00E9413038111C6
:100A3000C1CFBD82CE82DF82E8868091650090E0E2
:100A4000B0E0A0E0B82FAA279927882789839A8346
:100A5000AB83BC83AE014F5F5F4F68E08AE00E94CA
:100A600013038111A6CFAE014B5F5F4F6CE08BE0AB
:100A70000E9413039FCFCF92DF92EF92FF920F93CA
:100A80001F93CF93DF9300D000D0CDB7DEB77B01AB
:100A90008C016A0124E330E040E050E06CE070E259
:100AA00082E090E40E94A004811125C0A601B70154
:100AB000C8010E94680381111EC0AE014F5F5F4FE5
:100AC0006CE070E282E090E40E940004811123C097
:100AD00049815A816B817C818A019B0105711127B3
:100AE00022273327012B022B032B99F445FD04C049
:100AF000842F806801C080E80F900F900F900F90B6
:100B0000DF91CF911F910F91FF90EF90DF90CF90E9
:100B10000895842FF1CF80E4EFCF0F931F93CF93ED
:100B2000DF9300D000D00F92CDB7DEB78091670081
:100B3000843051F00F900F900F900F900F90DF9135
:100B4000CF911F910F91089500916A0010916B0051
:100B5000409168005091690080916100909162001D
:100B6000A0916300B0916400BC01CD010E943B05DF
:100B70008D838091610090916200A0916300B0919B
:100B800064009C01AD012E5F3F4F4F4F5F4F2983A3
:100B90003A834B835C83A80169817A818B819C8134
:100BA0000E943B054091610050916200609163009A
:100BB000709164004C5F5F4F6F4F7F4F40936100B7
:100BC0005093620060936300709364009D81982B42
:100BD00041F092E0909367003D81309368008093EC
:100BE00069000F900F900F900F900F90DF91CF91B1
:100BF0001F910F910C941F01CF93DF9300D000D071
:100C0000CDB7DEB780916700843051F0823009F4AF
:100C100042C00F900F900F900F90DF91CF910895E9
:100C2000209168003091690040916A0050916B00FA
:100C30008091610090916200A0916300B091640086
:100C400089839A83AB83BC83BC01CD010E94A0043D
:100C50004091610050916200609163007091640066
:100C60004C5F5F4F6F4F7F4F409361005093620026
:100C70006093630070936400882329F091E090935F
:100C80006700809368000F900F900F900F90DF9196
:100C9000CF910C941F0140916800509169008091A0
:100CA000610090916200A0916300B091640089831B
:100CB0009A83AB83BC83BC01CD010E946803409141
:100CC00061005091620060916300709164004E5F1A
:100CD0005F4F6F4F7F4F409361005093620060936E
:100CE000630070936400882371F2C8CFCF93DF93C1
:100CF00000D000D0CDB7DEB780916700883049F0D2
:100D0000863071F10F900F900F900F90DF91CF917F
:100D1000089520916C0030916D0040916E005091CB
:100D20006F008091680090916900A0916A00B09175
:100D30006B0089839A83AB83BC83BC01CD010E9485
:100D4000A004882329F091E09093670080936800C5
:100D50000F900F900F900F90DF91CF910C941F0187
:100D600040916C0050916D008091680090916900F5
:100D7000A0916A00B0916B0089839A83AB83BC8396
:100D8000BC01CD010E946803882311F3DCCFCF9210
:100D9000DF92EF92FF920F931F93CF93DF93CDB724
:100DA000DEB728970FB6F894DEBF0FBECDBFF62E84
:100DB000C72ED82EE92E8A0181E090E0A0E0B2E2B1
:100DC0008D839E83AF83B8874091650050E070E0CB
:100DD00060E0742F66275527442749835A836B8325
:100DE0007C83AE014F5F5F4F68E08AE00E9413038F
:100DF000882381F0806428960FB6F894DEBF0FBE7A
:100E0000CDBFDF91CF911F910F91FF90EF90DF90B9
:100E1000CF900895AE014B5F5F4F60E08BE00E9482
:100E200013038111E8CFFD82CE82DF82E8868091B4
:100E3000650090E0B0E0A0E0B82FAA2799278827A6
:100E400089839A83AB83BC83AE014F5F5F4F68E0B9
:100E50008AE00E9413038111CDCFAE014B5F5F4F3B
:100E600064E08BE00E9413038111C5CF809165007F
:100E700090E0B0E0A0E0B82FAA27992788278983BF
:100E80009A83AB83BC83AE014F5F5F4F68E08AE01B
:100E90000E9413038111AECFAE014B5F5F4F6EE036
:100EA0008BE00E9413038111A6CF4D815E816F817B
:100EB0007885F1FCAB01F801518340839CCFCF933F
:100EC000DF93CDB7DEB728970FB6F894DEBF0FBE1D
:100ED000CDBF80916700843061F0823009F445C055
:100EE00028960FB6F894DEBF0FBECDBFDF91CF912D
:100EF00008958091610090916200A0916300B0918B
:100F00006400AE014F5F5F4FBC01CD010E94000441
:100F100040916100509162006091630070916400A3
:100F20004C5F5F4F6F4F7F4F409361005093620063
:100F30006093630070936400882341F091E0909384
:100F40006700809368000E941F01CACF89819A813F
:100F5000AB81BC818093680090936900A0936A0084
:100F6000B0936B000E941F01BBCF809161009091F4
:100F70006200A0916300B0916400AE014F5F5F4FCB
:100F8000BC01CD010E94C7064091610050916200F2
:100F900060916300709164004E5F5F4F6F4F7F4FB1
:100FA000409361005093620060936300709364000B
:100FB0008111C4CF89819A819093690080936800E0
:100FC0000E941F018DCFCF93DF93CDB7DEB7289757
:100FD0000FB6F894DEBF0FBECDBF8091670088309A
:100FE00059F0863089F128960FB6F894DEBF0FBE0F
:100FF000CDBFDF91CF9108958091680090916900F5
:10100000A0916A00B0916B00AE014F5F5F4FBC01D1
:10101000CD010E940004882341F091E09093670085
:10102000809368000E941F01DECF89819A81AB8185
:10103000BC8180936C0090936D00A0936E00B09380
:101040006F000E941F01CFCF8091680090916900CE
:10105000A0916A00B0916B00AE014F5F5F4FBC0181
:10106000CD010E94C7068111D8CF89819A819093C2
:101070006D0080936C000E941F01B5CF1F93CF932A
:10108000DF9300D000D0CDB7DEB7E0916600E1502D
:10109000E03150F4F0E0E052F64F0C94D809809122
:1010A0006700823009F419C10F900F900F900F90D4
:1010B000DF91CF911F9108950F900F900F900F9097
:1010C000DF91CF911F910C9476068091670081305B
:1010D00059F780916800882309F40CC1C19AE4CFC4
:1010E00080916700843001F7E8E6F0E091E09093AA
:1010F000600081918FB980916000882329F08895E4
:10110000809160008111FBCF8FB1DF0111978C932B
:1011100080E0EC36F80759F742C0809167008130D3
:1011200019F680916800813009F4E8C0823009F432
:10113000E3C08111B9CF8BE08BBBDC9ADB98DA9AE4
:10114000DA98B2CF0F900F900F900F90DF91CF9160
:101150001F910C94700280916700823008F4A4CF34
:10116000609168008150990B880F991F880F991F13
:10117000880F991F6817190611F00CF095CFDB9AAC
:10118000DA9ADA98DB98DA9ADA9889E690E00E949F
:101190001F02DB9ADA9ADA98D99ADA9ADA980F90DB
:1011A0000F900F900F90DF91CF911F910C941F0122
:1011B0000F900F900F900F90DF91CF911F910C9493
:1011C000970280916700863009F06ECF4AE650E0C2
:1011D00060916900809168000E9413038093690008
:1011E000DECF80916700863009F05ECF10916900F4
:1011F0008091680090E0B0E0A0E0B82FAA2799277E
:101200008827212F207F822B89839A83AB83BC83FD
:10121000AE014F5F5F4F68E08AE00E9413038823AE
:1012200009F461C049815A816B817C8140936A00D5
:1012300050936B0060936C0070936D00806480939A
:101240006900ADCF809167008230E9F1853009F007
:101250002BCF80916800823009F026CF8091690001
:1012600090916A00A0916B00B0916C008093610036
:1012700090936200A0936300B093640090CF0F90AE
:101280000F900F900F90DF91CF911F910C945F07FB
:101290000F900F900F900F90DF91CF911F910C94B2
:1012A000FC050F900F900F900F90DF91CF911F9141
:1012B0000C948D050F900F900F900F90DF91CF91B0
:1012C0001F910C94E30780916800813009F0ECCE07
:1012D000809169008093650062CF1092680081E080
:1012E000809369005CCF4AE650E0612F8BE00E945A
:1012F0001303A5CFC198D8CED898D6CED89AD4CE3D
:1013000082EB87BB83ED8DB98FED8ABB8AE08BBB07
:1013100085B7806485BF1BB888E98AB986E880BD37
:1013200080E080BD8FE289B97894C1E0D2E00E946C
:10133000A800409186008823C1F08091870090E04A
:101340009C012F5F3F4F2770421711F18C589F4F20
:10135000FC01C28720938700559A0E943E080E9494
:10136000A800409186008111E8CF8091870090E02D
:101370009C012F5F3F4F2770421791F08C589F4F71
:10138000FC01D28720938700559A0E94A301CFCFFA
:1013900080918800813A08F7889540918600CDCFEA
:1013A00080918800813A88F7889540918600DDCF4A
:1013B000EE0FFF1F0590F491E02D0994F894FFCFF4
:1013C0004F086508700854088D08A208AB08D808B3
:1013D000E108F10822093F09480951095A095C0846
:00000001FF
