:020000040800F2
:100000000020002069020008E9010008E901000859
:10001000E9010008E9010008E9010008000000000A
:10002000000000000000000000000000E9010008DE
:10003000E901000800000000E9010008ED010008E6
:10004000E9010008E9010008E9010008E9010008E8
:10005000E9010008E9010008E9010008E9010008D8
:10006000E9010008E9010008E9010008E9010008C8
:10007000E9010008E9010008E9010008E9010008B8
:10008000E9010008E9010008E9010008000000009A
:10009000000000000000000000000000E90100086E
:1000A000E9010008E9010008E9010008E901000888
:1000B000E9010008E9010008E9010008E901000878
:1000C000E9010008E9010008E9010008E901000868
:1000D000E9010008C1020008E9010008E90100087F
:1000E000E9010008E9010008E9010008000000003A
:1000F0000000000000000000000000000000000000
:1001000000000000000000000000000000000000EF
:100110000000000000000000E9010008E9010008FB
:1001200000000000000000000000000000000000CF
:0401300000000000CB
:100134000648074B10B5834204D0064B002B01D070
:1001440000F04EF810BC01BC0047C046000000207F
:10015400000000200000000008480949091A8B101B
:10016400C90FC91810B5491004D0064B002B01D093
:1001740000F036F810BC01BC0047C0460000002067
:10018400000000200000000010B5084C2378002B6C
:1001940009D1FFF7CDFF064B002B02D00548AFF382
:1001A40000800123237010BC01BC00470000002024
:1001B400000000002C030008064B10B5002B03D0F0
:1001C40005490648AFF30080FFF7C6FF10BC01BC29
:1001D4000047C04600000000040000202C03000873
:1001E4001847C046FEE700BF064A137883F00101B2
:1001F4001170022213B1044B1A617047024B5A6109
:10020400704700BF1C00002000080140104B114A39
:10021400A3EB020C93424FEAAC0C08D000230E4926
:1002240051F8040B01339C4542F8040BF8D80B4AEF
:100234000B498A420BD200200139891A21F00301AB
:10024400043113460A4443F8040B9342FBD170472C
:1002540000000020000000205403000800000020DB
:100264003400002044F2040508B5FFF7CFFF4FF037
:10027400E022002007210B4C0B4BA5610B4C1C60AA
:1002840004F590645C600A4C54619061116162B63B
:10029400202501200222074C0749656008705A6135
:1002A40030BFFDE7001002400008014024444444EC
:1002B40000093D0000E100E01C000020174A00B5E1
:1002C400136899060FD51648526890F808E0417AE9
:1002D4005FFA82FC4A1C02F007029645C9B21CBFB1
:1002E40000F801C042721B0601D45DF804FB0C4AFD
:1002F400917CD07CCBB281420AD0D118897A013367
:10030400064803F00703C9B2937441605DF804FB27
:100314000022044BC3F89C21E7E700BF00380140EA
:100324002000002000002742F8B5C046F8BC08BCF5
:100334009E467047F8B5C046F8BC08BC9E46704758
:08034400A4FEFF7F0100000090
:04034C00BD010008E7
:040350008D01000813
:040000050800026984
:00000001FF
