:100000000C942A000C943C000C943C000C943C0092
:100010000C943C000C943C000C943C000C943C0070
:100020000C943C000C943C000C942D020C94A10107
:100030000C94C8010C94C7010C9488000C943C00EB
:100040000C943C000C943C000C943C000C943C0040
:100050000C943C0011241FBECFE5D4E0DEBFCDBF21
:1000600020E0A0E6B0E001C01D92A83BB207E1F796
:100070000E9487010C94C5020C9400000F931F93FB
:10008000CF93DF93C2E6D0E08E01F80181918F011A
:100090000E947502F0E006361F07B9F702E610E08D
:1000A00007C085B78F7485BF85B7806485BF889585
:1000B00088E690E00E949A02882399F38091680074
:1000C000F80181938F01F0E006361F0789F78091D0
:1000D00060000E94F601809161000E94F60180910B
:1000E0006100882381F00EEF1FEF005610408991C8
:1000F0000E94F60120916100C8018C0F9D1F2817F6
:10010000190609F0A4F7DF91CF911F910F9108957F
:100110001F920F920FB60F9211240F931F932F93DC
:100120003F934F935F936F937F938F939F93AF937F
:10013000BF93CF93DF93EF93FF9380916A00811178
:1001400018C010926A003798FF91EF91DF91CF911C
:10015000BF91AF919F918F917F916F915F914F91DF
:100160003F912F911F910F910F900FBE0F901F90F5
:10017000189584E08093600082E08093610084B1F0
:100180008093620085B18093630084E00E94F60151
:10019000809161000E94F60180916100882389F2BC
:1001A000C2E6D0E00EEF1FEF0056104089910E948A
:1001B000F60120916100C8018C0F9D1F28171906B8
:1001C00009F0A4F7BECF809160008330F1F048F4CD
:1001D000813099F0823061F5809161008130D9F0F1
:1001E0000895843049F4809161008130D1F081E03C
:1001F00080936A00379A0895089580916100813054
:1002000079F7809162008BBB089580916100843002
:1002100039F70C943E0080916200882339F0C19A2E
:100220000895809162008F7D87B9E1CFC1980895CC
:1002300008950F931F93CF93DF9307C085B78F74F3
:1002400085BF85B7806485BF889589E690E00E9468
:100250001202882399F3809169008093600007C09F
:1002600085B78F7485BF85B7806485BF889589E61B
:1002700090E00E941202882399F380916900809394
:100280006100873040F5882301F1C2E6D0E00EEF2F
:100290001FEF0056104007C085B78F7485BF85B724
:1002A000806485BF889589E690E00E9412028823C9
:1002B00099F380916900899320916100C8018C0FA6
:1002C0009D1F2817190609F074F7DF91CF911F9130
:1002D0000F910C94E300D0E0C0E007C085B78F74A5
:1002E00085BF85B7806485BF889589E690E00E94C8
:1002F0001202882399F32196809161008C171D06C4
:1003000009F09CF7DF91CF911F910F91089582EB37
:1003100087BB83ED8DB90E94B5021BB888EF8AB9FF
:1003200086E880BD10BC83E389B91ABA8FEF84BB1D
:1003300085BB80E287B98EE086B910BE0E941901A4
:10034000FDCF0F920FB60F922F938F939F93EF9342
:10035000FF9380916E00803188F42CB190916F00F2
:10036000E92F092E000CFF0BEF57FF4F20839F5FF3
:100370009F7090936F008F5F80936E00FF91EF915D
:100380009F918F912F910F900FBE0F9018951895F8
:100390000F920FB60F921F9211248F93EF93FF933A
:1003A00080916B001816D4F4E0916D0081E08E0FFF
:1003B00080936D000E2E000CFF0BEF58FF4F8081D5
:1003C0008CB980916D008F7080936D0080916B006F
:1003D000815080936B00811101C05598FF91EF917E
:1003E0008F911F900F900FBE0F901895F8949091D9
:1003F0006B009031A0F420916C00E22F022E000CD3
:10040000FF0BEF58FF4F80832F5F2F7020936C00FE
:100410009F5F90936B00559A81E07894089580E0F7
:1004200078940895FC01F89490916E0080E019167C
:1004300094F480917000A82F082E000CBB0BAF57CE
:10044000BF4F2C9120838F5F8F70809370009150ED
:1004500090936E0081E0789408950F920FB60F92FA
:100460001F9211242F938F939F93EF93FF932FB19C
:10047000809192001816ACF5E091940081E08E0F07
:10048000809394000E2E000CFF0BE856FF4F8081E6
:100490008FB9809194008F70809394008091920026
:1004A00081508093920080919500803180F49091EA
:1004B0009600E92F092E000CFF0BE855FF4F208313
:1004C0009F5F9F70909396008F5F80939500FF9140
:1004D000EF919F918F912F911F900F900FBE0F90D2
:1004E000189581E080939100DECFF894909192006E
:1004F000903150F420919100222349F08FB910924D
:10050000910081E07894089580E078940895209196
:100510009300E22F022E000CFF0BE856FF4F808362
:100520002F5F2F70209393009F5F9093920081E044
:1005300078940895FC01F8949091950080E0191644
:1005400094F480919700A82F082E000CBB0BA8559F
:10055000BF4F2C9120838F5F8F70809397009150B5
:100560009093950081E078940895109297001092EE
:1005700096001092950010929400109293001092A1
:0E058000920081E0809391000895F894FFCFDF
:00000001FF
