:1000000012C021C020C01FC01EC01DC01CC01BC00C
:100010001AC019C0E8C15BC181C17FC15AC013C0F9
:1000200012C011C010C011241FBECFE5D4E0DEBF46
:10003000CDBF20E0A0E6B0E001C01D92A83BB20712
:10004000E1F730D168C2DCCF0F931F93CF93DF93DA
:10005000C2E6D0E08E01F80181918F010CD2F0E070
:1000600006361F07C1F702E610E007C085B78F7894
:1000700085BF85B7806885BF889588E690E020D2E7
:100080008823A1F380916800F80181938F01F0E04B
:1000900006361F0791F7809160006ED18091610054
:1000A0006BD180916100882379F00EEF1FEF00562D
:1000B0001040899161D120916100C8018C0F9D1F72
:1000C0002817190609F0ACF7DF91CF911F910F9116
:1000D00008951F920F920FB60F9211240F931F9342
:1000E0002F933F934F935F936F937F938F939F9340
:1000F000AF93BF93CF93DF93EF93FF9380916A0009
:10010000811118C010926A003798FF91EF91DF912A
:10011000CF91BF91AF919F918F917F916F915F919F
:100120004F913F912F911F910F910F900FBE0F9004
:100130001F90189584E08093600082E080936100B6
:1001400084B18093620085B18093630084E014D110
:100150008091610011D180916100882399F2C2E6FB
:10016000D0E00EEF1FEF00561040899105D120918D
:100170006100C8018C0F9D1F2817190609F0ACF704
:10018000C1CF809160008330C1F0843069F082304B
:1001900009F00895809161008130D9F78091620063
:1001A0008823A9F0C19A089580916100813051F0AF
:1001B00081E080936A00379A0895809161008430CD
:1001C00041F742CF809162008F7D87B9F1CFC1980E
:1001D00008950F931F93CF93DF9307C085B78F7850
:1001E00085BF85B7806885BF889589E690E0E0D0B7
:1001F0008823A1F3809169008093600007C085B7D0
:100200008F7885BF85B7806885BF889589E690E03F
:10021000CFD08823A1F3809169008093610087305B
:1002200030F58823F9F0C2E6D0E00EEF1FEF00565C
:10023000104007C085B78F7885BF85B7806885BFB8
:10024000889589E690E0B4D08823A1F38091690075
:10025000899320916100C8018C0F9D1F28171906F2
:1002600009F07CF7DF91CF911F910F918ACFD0E0F9
:10027000C0E007C085B78F7885BF85B7806885BF28
:10028000889589E690E094D08823A1F32196809107
:1002900061008C171D0609F0A4F7DF91CF911F9123
:1002A0000F9108958EE287BB83ED8DB924D11BB8E1
:1002B00088EF8AB986E880BD10BC83E389B980E203
:1002C00087B98EE086B910BE84DF83DFFDCF0F9241
:1002D0000FB60F922F938F939F93EF93FF9380917D
:1002E0006E00803188F42CB190916F00E92F092EB7
:1002F000000CFF0BEF57FF4F20839F5F9F70909381
:100300006F008F5F80936E00FF91EF919F918F91AF
:100310002F910F900FBE0F90189518950F920FB652
:100320000F921F9211248F93EF93FF9380916B0094
:100330001816D4F4E0916D0081E08E0F80936D006B
:100340000E2E000CFF0BEF58FF4F80818CB980916F
:100350006D008F7080936D0080916B008150809351
:100360006B00811101C05598FF91EF918F911F9003
:100370000F900FBE0F901895F89490916B009031EC
:10038000A0F420916C00E22F022E000CFF0BEF581E
:10039000FF4F80832F5F2F7020936C009F5F90939F
:1003A0006B00559A81E07894089580E078940895E0
:1003B000FC01F89490916E0080E0191694F48091FD
:1003C0007000A82F082E000CBB0BAF57BF4F2C910D
:1003D00020838F5F8F7080937000915090936E0098
:1003E00081E0789408950F920FB60F921F92112416
:1003F0002F938F939F93EF93FF932FB18091920050
:100400001816ACF5E091940081E08E0F8093940073
:100410000E2E000CFF0BE856FF4F80818FB98091A4
:1004200094008F708093940080919200815080930B
:10043000920080919500803180F490919600E92F90
:10044000092E000CFF0BE855FF4F20839F5F9F7024
:10045000909396008F5F80939500FF91EF919F910D
:100460008F912F911F900F900FBE0F90189581E0E4
:1004700080939100DECFF89490919200903150F4E7
:1004800020919100222349F08FB91092910081E0D0
:100490007894089580E07894089520919300E22F55
:1004A000022E000CFF0BE856FF4F80832F5F2F704A
:1004B000209393009F5F9093920081E07894089539
:1004C000FC01F8949091950080E0191694F48091C5
:1004D0009700A82F082E000CBB0BA855BF4F2C91DE
:1004E00020838F5F8F708093970091509093950039
:1004F00081E07894089510929700109296001092DF
:10050000950010929400109293001092920081E056
:0A051000809391000895F894FFCF46
:00000001FF
